{
  "_format": "hh-sol-artifact-1",
  "contractName": "MultiSigWalletFactory",
  "sourceName": "contracts/MultiSigWalletFactory.sol",
  "abi": [
    {
      "inputs": [
        {
          "internalType": "contract MultiSigWallet",
          "name": "wallet",
          "type": "address"
        },
        {
          "internalType": "address",
          "name": "newOwner",
          "type": "address"
        }
      ],
      "name": "addOwner",
      "outputs": [],
      "stateMutability": "nonpayable",
      "type": "function"
    },
    {
      "inputs": [
        {
          "internalType": "contract MultiSigWallet",
          "name": "wallet",
          "type": "address"
        },
        {
          "internalType": "uint256",
          "name": "_txIndex",
          "type": "uint256"
        }
      ],
      "name": "confirmTransaction",
      "outputs": [],
      "stateMutability": "nonpayable",
      "type": "function"
    },
    {
      "inputs": [
        {
          "internalType": "address[]",
          "name": "_owners",
          "type": "address[]"
        },
        {
          "internalType": "uint256",
          "name": "_percentConfirmationsRequired",
          "type": "uint256"
        }
      ],
      "name": "createWallet",
      "outputs": [
        {
          "internalType": "contract MultiSigWallet",
          "name": "",
          "type": "address"
        }
      ],
      "stateMutability": "nonpayable",
      "type": "function"
    },
    {
      "inputs": [
        {
          "internalType": "contract MultiSigWallet",
          "name": "wallet",
          "type": "address"
        },
        {
          "internalType": "uint256",
          "name": "_txIndex",
          "type": "uint256"
        }
      ],
      "name": "executeTransaction",
      "outputs": [],
      "stateMutability": "nonpayable",
      "type": "function"
    },
    {
      "inputs": [
        {
          "internalType": "contract MultiSigWallet",
          "name": "wallet",
          "type": "address"
        }
      ],
      "name": "getOwners",
      "outputs": [
        {
          "internalType": "address[]",
          "name": "",
          "type": "address[]"
        }
      ],
      "stateMutability": "view",
      "type": "function"
    },
    {
      "inputs": [
        {
          "internalType": "contract MultiSigWallet",
          "name": "wallet",
          "type": "address"
        }
      ],
      "name": "getPercentConfirmationRequired",
      "outputs": [
        {
          "internalType": "uint256",
          "name": "",
          "type": "uint256"
        }
      ],
      "stateMutability": "view",
      "type": "function"
    },
    {
      "inputs": [
        {
          "internalType": "contract MultiSigWallet",
          "name": "wallet",
          "type": "address"
        },
        {
          "internalType": "uint256",
          "name": "_txIndex",
          "type": "uint256"
        }
      ],
      "name": "getTransaction",
      "outputs": [
        {
          "internalType": "address",
          "name": "from",
          "type": "address"
        },
        {
          "internalType": "address",
          "name": "to",
          "type": "address"
        },
        {
          "internalType": "uint256",
          "name": "value",
          "type": "uint256"
        },
        {
          "internalType": "bytes",
          "name": "data",
          "type": "bytes"
        },
        {
          "internalType": "bool",
          "name": "executed",
          "type": "bool"
        },
        {
          "internalType": "uint256",
          "name": "numConfirmations",
          "type": "uint256"
        }
      ],
      "stateMutability": "view",
      "type": "function"
    },
    {
      "inputs": [
        {
          "internalType": "contract MultiSigWallet",
          "name": "wallet",
          "type": "address"
        }
      ],
      "name": "getTransactionCount",
      "outputs": [
        {
          "internalType": "uint256",
          "name": "",
          "type": "uint256"
        }
      ],
      "stateMutability": "view",
      "type": "function"
    },
    {
      "inputs": [],
      "name": "getWalletCreators",
      "outputs": [
        {
          "internalType": "address[]",
          "name": "",
          "type": "address[]"
        }
      ],
      "stateMutability": "view",
      "type": "function"
    },
    {
      "inputs": [],
      "name": "getWallets",
      "outputs": [
        {
          "internalType": "contract MultiSigWallet[]",
          "name": "",
          "type": "address[]"
        }
      ],
      "stateMutability": "view",
      "type": "function"
    },
    {
      "inputs": [
        {
          "internalType": "contract MultiSigWallet",
          "name": "wallet",
          "type": "address"
        },
        {
          "internalType": "address",
          "name": "_owner",
          "type": "address"
        }
      ],
      "name": "isOwner",
      "outputs": [
        {
          "internalType": "bool",
          "name": "",
          "type": "bool"
        }
      ],
      "stateMutability": "view",
      "type": "function"
    },
    {
      "inputs": [
        {
          "internalType": "contract MultiSigWallet",
          "name": "wallet",
          "type": "address"
        },
        {
          "internalType": "address",
          "name": "existingOwner",
          "type": "address"
        }
      ],
      "name": "removeOwner",
      "outputs": [],
      "stateMutability": "nonpayable",
      "type": "function"
    },
    {
      "inputs": [
        {
          "internalType": "contract MultiSigWallet",
          "name": "wallet",
          "type": "address"
        },
        {
          "internalType": "uint256",
          "name": "_txIndex",
          "type": "uint256"
        }
      ],
      "name": "revokeConfirmation",
      "outputs": [],
      "stateMutability": "nonpayable",
      "type": "function"
    },
    {
      "inputs": [
        {
          "internalType": "contract MultiSigWallet",
          "name": "wallet",
          "type": "address"
        },
        {
          "internalType": "uint256",
          "name": "_percentConfirmationRequired",
          "type": "uint256"
        }
      ],
      "name": "setPercentConfirmationRequired",
      "outputs": [],
      "stateMutability": "nonpayable",
      "type": "function"
    },
    {
      "inputs": [
        {
          "internalType": "contract MultiSigWallet",
          "name": "wallet",
          "type": "address"
        },
        {
          "internalType": "address",
          "name": "_from",
          "type": "address"
        },
        {
          "internalType": "address",
          "name": "_to",
          "type": "address"
        },
        {
          "internalType": "uint256",
          "name": "_value",
          "type": "uint256"
        },
        {
          "internalType": "bytes",
          "name": "_data",
          "type": "bytes"
        }
      ],
      "name": "submitTransaction",
      "outputs": [],
      "stateMutability": "nonpayable",
      "type": "function"
    },
    {
      "inputs": [
        {
          "internalType": "uint256",
          "name": "",
          "type": "uint256"
        }
      ],
      "name": "walletCreators",
      "outputs": [
        {
          "internalType": "address",
          "name": "",
          "type": "address"
        }
      ],
      "stateMutability": "view",
      "type": "function"
    },
    {
      "inputs": [
        {
          "internalType": "uint256",
          "name": "",
          "type": "uint256"
        }
      ],
      "name": "wallets",
      "outputs": [
        {
          "internalType": "contract MultiSigWallet",
          "name": "",
          "type": "address"
        }
      ],
      "stateMutability": "view",
      "type": "function"
    }
  ],
  "bytecode": "0x608060405234801561001057600080fd5b50614689806100206000396000f3fe60806040523480156200001157600080fd5b5060043610620001245760003560e01c8063887e7be511620000b1578063a69e98de116200007b578063a69e98de1462000334578063be1911f1146200036a578063db7a4605146200038a578063fbe5ce0a14620003ac578063fd8b84b114620003cc5762000124565b8063887e7be514620002815780638d300bdc14620002a157806391dc2e7114620002d7578063a43293b414620002f95762000124565b80636139dbb911620000f35780636139dbb914620001d5578063683ae08314620001f55780637ad71f7214620002155780637ddc02d4146200024b5762000124565b806316d390bf14620001295780631e21b6be146200014957806323ca0cd214620001695780633800a55d146200019f575b600080fd5b62000147600480360381019062000141919062001152565b62000402565b005b62000167600480360381019062000161919062001193565b62000477565b005b62000187600480360381019062000181919062001126565b620004f6565b604051620001969190620016e1565b60405180910390f35b620001bd6004803603810190620001b7919062001057565b62000581565b604051620001cc9190620016c4565b60405180910390f35b620001f36004803603810190620001ed919062001231565b620006e5565b005b6200021360048036038101906200020d919062001231565b6200075a565b005b6200023360048036038101906200022d919062001272565b620007cf565b604051620002429190620016c4565b60405180910390f35b62000269600480360381019062000263919062001152565b6200080f565b604051620002789190620016a7565b60405180910390f35b6200029f600480360381019062000299919062001231565b620008a8565b005b620002bf6004803603810190620002b9919062001272565b6200091d565b604051620002ce919062001515565b60405180910390f35b620002e16200095d565b604051620002f091906200165f565b60405180910390f35b62000317600480360381019062000311919062001231565b620009ed565b6040516200032b96959493929190620015b5565b60405180910390f35b6200035260048036038101906200034c919062001126565b62000aa1565b604051620003619190620016e1565b60405180910390f35b62000388600480360381019062000382919062001231565b62000b2c565b005b6200039462000ba1565b604051620003a3919062001683565b60405180910390f35b620003ca6004803603810190620003c4919062001152565b62000c31565b005b620003ea6004803603810190620003e4919062001126565b62000ca6565b604051620003f991906200165f565b60405180910390f35b8173ffffffffffffffffffffffffffffffffffffffff166316d390bf82336040518363ffffffff1660e01b81526004016200043f92919062001532565b600060405180830381600087803b1580156200045a57600080fd5b505af11580156200046f573d6000803e3d6000fd5b505050505050565b8573ffffffffffffffffffffffffffffffffffffffff166343319cf086868686866040518663ffffffff1660e01b8152600401620004ba9594939291906200155f565b600060405180830381600087803b158015620004d557600080fd5b505af1158015620004ea573d6000803e3d6000fd5b50505050505050505050565b60008173ffffffffffffffffffffffffffffffffffffffff16632e7700f06040518163ffffffff1660e01b815260040160206040518083038186803b1580156200053f57600080fd5b505afa15801562000554573d6000803e3d6000fd5b505050506040513d601f19601f820116820180604052508101906200057a91906200129e565b9050919050565b600080848484604051620005959062000d36565b620005a39392919062001629565b604051809103906000f080158015620005c0573d6000803e3d6000fd5b5090506000819080600181540180825580915050600190039060005260206000200160009091909190916101000a81548173ffffffffffffffffffffffffffffffffffffffff021916908373ffffffffffffffffffffffffffffffffffffffff16021790555060018585600081811062000663577f4e487b7100000000000000000000000000000000000000000000000000000000600052603260045260246000fd5b90506020020160208101906200067a919062000f7c565b9080600181540180825580915050600190039060005260206000200160009091909190916101000a81548173ffffffffffffffffffffffffffffffffffffffff021916908373ffffffffffffffffffffffffffffffffffffffff160217905550809150509392505050565b8173ffffffffffffffffffffffffffffffffffffffff16636688c8f182336040518363ffffffff1660e01b815260040162000722929190620016fe565b600060405180830381600087803b1580156200073d57600080fd5b505af115801562000752573d6000803e3d6000fd5b505050505050565b8173ffffffffffffffffffffffffffffffffffffffff166329ba878082336040518363ffffffff1660e01b815260040162000797929190620016fe565b600060405180830381600087803b158015620007b257600080fd5b505af1158015620007c7573d6000803e3d6000fd5b505050505050565b60008181548110620007e057600080fd5b906000526020600020016000915054906101000a900473ffffffffffffffffffffffffffffffffffffffff1681565b60008273ffffffffffffffffffffffffffffffffffffffff16632f54bf6e836040518263ffffffff1660e01b81526004016200084c919062001515565b60206040518083038186803b1580156200086557600080fd5b505afa1580156200087a573d6000803e3d6000fd5b505050506040513d601f19601f82011682018060405250810190620008a09190620010fa565b905092915050565b8173ffffffffffffffffffffffffffffffffffffffff166360f247b582336040518363ffffffff1660e01b8152600401620008e5929190620016fe565b600060405180830381600087803b1580156200090057600080fd5b505af115801562000915573d6000803e3d6000fd5b505050505050565b600181815481106200092e57600080fd5b906000526020600020016000915054906101000a900473ffffffffffffffffffffffffffffffffffffffff1681565b60606001805480602002602001604051908101604052809291908181526020018280548015620009e357602002820191906000526020600020905b8160009054906101000a900473ffffffffffffffffffffffffffffffffffffffff1673ffffffffffffffffffffffffffffffffffffffff168152602001906001019080831162000998575b5050505050905090565b600080600060606000808773ffffffffffffffffffffffffffffffffffffffff166333ea3dc8886040518263ffffffff1660e01b815260040162000a329190620016e1565b60006040518083038186803b15801562000a4b57600080fd5b505afa15801562000a60573d6000803e3d6000fd5b505050506040513d6000823e3d601f19601f8201168201806040525081019062000a8b919062000fa8565b9550955095509550955095509295509295509295565b60008173ffffffffffffffffffffffffffffffffffffffff1663b58d88f76040518163ffffffff1660e01b815260040160206040518083038186803b15801562000aea57600080fd5b505afa15801562000aff573d6000803e3d6000fd5b505050506040513d601f19601f8201168201806040525081019062000b2591906200129e565b9050919050565b8173ffffffffffffffffffffffffffffffffffffffff1663bac5652782336040518363ffffffff1660e01b815260040162000b69929190620016fe565b600060405180830381600087803b15801562000b8457600080fd5b505af115801562000b99573d6000803e3d6000fd5b505050505050565b6060600080548060200260200160405190810160405280929190818152602001828054801562000c2757602002820191906000526020600020905b8160009054906101000a900473ffffffffffffffffffffffffffffffffffffffff1673ffffffffffffffffffffffffffffffffffffffff168152602001906001019080831162000bdc575b5050505050905090565b8173ffffffffffffffffffffffffffffffffffffffff1663fbe5ce0a82336040518363ffffffff1660e01b815260040162000c6e92919062001532565b600060405180830381600087803b15801562000c8957600080fd5b505af115801562000c9e573d6000803e3d6000fd5b505050505050565b60608173ffffffffffffffffffffffffffffffffffffffff1663a0e67e2b6040518163ffffffff1660e01b815260040160006040518083038186803b15801562000cef57600080fd5b505afa15801562000d04573d6000803e3d6000fd5b505050506040513d6000823e3d601f19601f8201168201806040525081019062000d2f9190620010b5565b9050919050565b612c1f8062001a3583390190565b600062000d5b62000d558462001754565b6200172b565b9050808382526020820190508285602086028201111562000d7b57600080fd5b60005b8581101562000daf578162000d94888262000e15565b84526020840193506020830192505060018101905062000d7e565b5050509392505050565b600062000dd062000dca8462001783565b6200172b565b90508281526020810184848401111562000de957600080fd5b62000df684828562001920565b509392505050565b60008135905062000e0f81620019cc565b92915050565b60008151905062000e2681620019cc565b92915050565b60008083601f84011262000e3f57600080fd5b8235905067ffffffffffffffff81111562000e5957600080fd5b60208301915083602082028301111562000e7257600080fd5b9250929050565b600082601f83011262000e8b57600080fd5b815162000e9d84826020860162000d44565b91505092915050565b60008151905062000eb781620019e6565b92915050565b60008083601f84011262000ed057600080fd5b8235905067ffffffffffffffff81111562000eea57600080fd5b60208301915083600182028301111562000f0357600080fd5b9250929050565b600082601f83011262000f1c57600080fd5b815162000f2e84826020860162000db9565b91505092915050565b60008135905062000f488162001a00565b92915050565b60008135905062000f5f8162001a1a565b92915050565b60008151905062000f768162001a1a565b92915050565b60006020828403121562000f8f57600080fd5b600062000f9f8482850162000dfe565b91505092915050565b60008060008060008060c0878903121562000fc257600080fd5b600062000fd289828a0162000e15565b965050602062000fe589828a0162000e15565b955050604062000ff889828a0162000f65565b945050606087015167ffffffffffffffff8111156200101657600080fd5b6200102489828a0162000f0a565b93505060806200103789828a0162000ea6565b92505060a06200104a89828a0162000f65565b9150509295509295509295565b6000806000604084860312156200106d57600080fd5b600084013567ffffffffffffffff8111156200108857600080fd5b620010968682870162000e2c565b93509350506020620010ab8682870162000f4e565b9150509250925092565b600060208284031215620010c857600080fd5b600082015167ffffffffffffffff811115620010e357600080fd5b620010f18482850162000e79565b91505092915050565b6000602082840312156200110d57600080fd5b60006200111d8482850162000ea6565b91505092915050565b6000602082840312156200113957600080fd5b6000620011498482850162000f37565b91505092915050565b600080604083850312156200116657600080fd5b6000620011768582860162000f37565b9250506020620011898582860162000dfe565b9150509250929050565b60008060008060008060a08789031215620011ad57600080fd5b6000620011bd89828a0162000f37565b9650506020620011d089828a0162000dfe565b9550506040620011e389828a0162000dfe565b9450506060620011f689828a0162000f4e565b935050608087013567ffffffffffffffff8111156200121457600080fd5b6200122289828a0162000ebd565b92509250509295509295509295565b600080604083850312156200124557600080fd5b6000620012558582860162000f37565b9250506020620012688582860162000f4e565b9150509250929050565b6000602082840312156200128557600080fd5b6000620012958482850162000f4e565b91505092915050565b600060208284031215620012b157600080fd5b6000620012c18482850162000f65565b91505092915050565b6000620012d88383620012fe565b60208301905092915050565b6000620012f28383620014e2565b60208301905092915050565b620013098162001877565b82525050565b6200131a8162001877565b82525050565b60006200132e83856200182b565b93506200133b82620017b9565b8060005b858110156200137c576200135482846200185e565b620013608882620012ca565b97506200136d8362001804565b9250506001810190506200133f565b5085925050509392505050565b60006200139682620017e3565b620013a281856200182b565b9350620013af83620017c3565b8060005b83811015620013e6578151620013ca8882620012ca565b9750620013d78362001811565b925050600181019050620013b3565b5085935050505092915050565b60006200140082620017ee565b6200140c81856200183c565b93506200141983620017d3565b8060005b8381101562001450578151620014348882620012e4565b975062001441836200181e565b9250506001810190506200141d565b5085935050505092915050565b62001468816200189f565b82525050565b60006200147c83856200184d565b93506200148b83858462001911565b6200149683620019bb565b840190509392505050565b6000620014ae82620017f9565b620014ba81856200184d565b9350620014cc81856020860162001920565b620014d781620019bb565b840191505092915050565b620014ed81620018e9565b82525050565b620014fe81620018e9565b82525050565b6200150f81620018df565b82525050565b60006020820190506200152c60008301846200130f565b92915050565b60006040820190506200154960008301856200130f565b6200155860208301846200130f565b9392505050565b60006080820190506200157660008301886200130f565b6200158560208301876200130f565b62001594604083018662001504565b8181036060830152620015a98184866200146e565b90509695505050505050565b600060c082019050620015cc60008301896200130f565b620015db60208301886200130f565b620015ea604083018762001504565b8181036060830152620015fe8186620014a1565b90506200160f60808301856200145d565b6200161e60a083018462001504565b979650505050505050565b600060408201905081810360008301526200164681858762001320565b905062001657602083018462001504565b949350505050565b600060208201905081810360008301526200167b818462001389565b905092915050565b600060208201905081810360008301526200169f8184620013f3565b905092915050565b6000602082019050620016be60008301846200145d565b92915050565b6000602082019050620016db6000830184620014f3565b92915050565b6000602082019050620016f8600083018462001504565b92915050565b600060408201905062001715600083018562001504565b6200172460208301846200130f565b9392505050565b6000620017376200174a565b905062001745828262001956565b919050565b6000604051905090565b600067ffffffffffffffff8211156200177257620017716200198c565b5b602082029050602081019050919050565b600067ffffffffffffffff821115620017a157620017a06200198c565b5b620017ac82620019bb565b9050602081019050919050565b6000819050919050565b6000819050602082019050919050565b6000819050602082019050919050565b600081519050919050565b600081519050919050565b600081519050919050565b6000602082019050919050565b6000602082019050919050565b6000602082019050919050565b600082825260208201905092915050565b600082825260208201905092915050565b600082825260208201905092915050565b60006200186f602084018462000dfe565b905092915050565b60006200188482620018bf565b9050919050565b60006200189882620018bf565b9050919050565b60008115159050919050565b6000620018b8826200188b565b9050919050565b600073ffffffffffffffffffffffffffffffffffffffff82169050919050565b6000819050919050565b6000620018f682620018fd565b9050919050565b60006200190a82620018bf565b9050919050565b82818337600083830152505050565b60005b838110156200194057808201518184015260208101905062001923565b8381111562001950576000848401525b50505050565b6200196182620019bb565b810181811067ffffffffffffffff821117156200198357620019826200198c565b5b80604052505050565b7f4e487b7100000000000000000000000000000000000000000000000000000000600052604160045260246000fd5b6000601f19601f8301169050919050565b620019d78162001877565b8114620019e357600080fd5b50565b620019f1816200189f565b8114620019fd57600080fd5b50565b62001a0b81620018ab565b811462001a1757600080fd5b50565b62001a2581620018df565b811462001a3157600080fd5b5056fe60806040523480156200001157600080fd5b5060405162002c1f38038062002c1f8339818101604052810190620000379190620003e5565b60008251116200007e576040517f08c379a00000000000000000000000000000000000000000000000000000000081526004016200007590620004fd565b60405180910390fd5b60008111801562000090575060648111155b620000d2576040517f08c379a0000000000000000000000000000000000000000000000000000000008152600401620000c99062000541565b60405180910390fd5b60005b8251811015620002f95760008382815181106200011b577f4e487b7100000000000000000000000000000000000000000000000000000000600052603260045260246000fd5b60200260200101519050600073ffffffffffffffffffffffffffffffffffffffff168173ffffffffffffffffffffffffffffffffffffffff16141562000198576040517f08c379a00000000000000000000000000000000000000000000000000000000081526004016200018f906200051f565b60405180910390fd5b600160008273ffffffffffffffffffffffffffffffffffffffff1673ffffffffffffffffffffffffffffffffffffffff16815260200190815260200160002060009054906101000a900460ff161562000228576040517f08c379a00000000000000000000000000000000000000000000000000000000081526004016200021f90620004db565b60405180910390fd5b60018060008373ffffffffffffffffffffffffffffffffffffffff1673ffffffffffffffffffffffffffffffffffffffff16815260200190815260200160002060006101000a81548160ff0219169083151502179055506000819080600181540180825580915050600190039060005260206000200160009091909190916101000a81548173ffffffffffffffffffffffffffffffffffffffff021916908373ffffffffffffffffffffffffffffffffffffffff160217905550508080620002f09062000640565b915050620000d5565b50600080549050600381905550806002819055505050620007fb565b60006200032c62000326846200058c565b62000563565b905080838252602082019050828560208602820111156200034c57600080fd5b60005b858110156200038057816200036588826200038a565b8452602084019350602083019250506001810190506200034f565b5050509392505050565b6000815190506200039b81620007c7565b92915050565b600082601f830112620003b357600080fd5b8151620003c584826020860162000315565b91505092915050565b600081519050620003df81620007e1565b92915050565b60008060408385031215620003f957600080fd5b600083015167ffffffffffffffff8111156200041457600080fd5b6200042285828601620003a1565b92505060206200043585828601620003ce565b9150509250929050565b60006200044e601083620005bb565b91506200045b82620006fd565b602082019050919050565b600062000475600f83620005bb565b9150620004828262000726565b602082019050919050565b60006200049c600d83620005bb565b9150620004a9826200074f565b602082019050919050565b6000620004c3602c83620005bb565b9150620004d08262000778565b604082019050919050565b60006020820190508181036000830152620004f6816200043f565b9050919050565b60006020820190508181036000830152620005188162000466565b9050919050565b600060208201905081810360008301526200053a816200048d565b9050919050565b600060208201905081810360008301526200055c81620004b4565b9050919050565b60006200056f62000582565b90506200057d82826200060a565b919050565b6000604051905090565b600067ffffffffffffffff821115620005aa57620005a9620006bd565b5b602082029050602081019050919050565b600082825260208201905092915050565b6000620005d982620005e0565b9050919050565b600073ffffffffffffffffffffffffffffffffffffffff82169050919050565b6000819050919050565b6200061582620006ec565b810181811067ffffffffffffffff82111715620006375762000636620006bd565b5b80604052505050565b60006200064d8262000600565b91507fffffffffffffffffffffffffffffffffffffffffffffffffffffffffffffffff8214156200068357620006826200068e565b5b600182019050919050565b7f4e487b7100000000000000000000000000000000000000000000000000000000600052601160045260246000fd5b7f4e487b7100000000000000000000000000000000000000000000000000000000600052604160045260246000fd5b6000601f19601f8301169050919050565b7f6f776e6572206e6f7420756e6971756500000000000000000000000000000000600082015250565b7f6f776e6572732072657175697265640000000000000000000000000000000000600082015250565b7f696e76616c6964206f776e657200000000000000000000000000000000000000600082015250565b7f696e76616c69642070657263656e74616765206f66207265717569726564206360008201527f6f6e6669726d6174696f6e730000000000000000000000000000000000000000602082015250565b620007d281620005cc565b8114620007de57600080fd5b50565b620007ec8162000600565b8114620007f857600080fd5b50565b612414806200080b6000396000f3fe6080604052600436106100f75760003560e01c806360f247b51161008a578063a0e67e2b11610059578063a0e67e2b146103b1578063b58d88f7146103dc578063bac5652714610407578063fbe5ce0a146104305761014e565b806360f247b5146102e05780636688c8f11461030957806380f59a65146103325780639ace38c21461036f5761014e565b80632f54bf6e116100c65780632f54bf6e1461020d57806333ea3dc81461024a57806343319cf01461028c57806352e953db146102b55761014e565b8063025e7c271461015357806316d390bf1461019057806329ba8780146101b95780632e7700f0146101e25761014e565b3661014e573373ffffffffffffffffffffffffffffffffffffffff167f90890809c654f11d6e72a28fa60149770a0d11ec6c92319d6ceb2bb0a4ea1a153447604051610144929190611f00565b60405180910390a2005b600080fd5b34801561015f57600080fd5b5061017a60048036038101906101759190611a0b565b610459565b6040516101879190611d13565b60405180910390f35b34801561019c57600080fd5b506101b760048036038101906101b2919061194f565b610498565b005b3480156101c557600080fd5b506101e060048036038101906101db9190611a34565b61064a565b005b3480156101ee57600080fd5b506101f76109aa565b6040516102049190611eb3565b60405180910390f35b34801561021957600080fd5b50610234600480360381019061022f9190611926565b6109b7565b6040516102419190611db8565b60405180910390f35b34801561025657600080fd5b50610271600480360381019061026c9190611a0b565b6109d7565b60405161028396959493929190611d2e565b60405180910390f35b34801561029857600080fd5b506102b360048036038101906102ae919061198b565b610b39565b005b3480156102c157600080fd5b506102ca610df0565b6040516102d79190611eb3565b60405180910390f35b3480156102ec57600080fd5b5061030760048036038101906103029190611a34565b610df6565b005b34801561031557600080fd5b50610330600480360381019061032b9190611a34565b611124565b005b34801561033e57600080fd5b5061035960048036038101906103549190611a34565b61144d565b6040516103669190611db8565b60405180910390f35b34801561037b57600080fd5b5061039660048036038101906103919190611a0b565b61147c565b6040516103a896959493929190611d2e565b60405180910390f35b3480156103bd57600080fd5b506103c661159d565b6040516103d39190611d96565b60405180910390f35b3480156103e857600080fd5b506103f161162b565b6040516103fe9190611eb3565b60405180910390f35b34801561041357600080fd5b5061042e60048036038101906104299190611a34565b611631565b005b34801561043c57600080fd5b506104576004803603810190610452919061194f565b6116ca565b005b6000818154811061046957600080fd5b906000526020600020016000915054906101000a900473ffffffffffffffffffffffffffffffffffffffff1681565b80600160008273ffffffffffffffffffffffffffffffffffffffff1673ffffffffffffffffffffffffffffffffffffffff16815260200190815260200160002060009054906101000a900460ff16610525576040517f08c379a000000000000000000000000000000000000000000000000000000000815260040161051c90611e93565b60405180910390fd5b60008080549050905060018060008673ffffffffffffffffffffffffffffffffffffffff1673ffffffffffffffffffffffffffffffffffffffff16815260200190815260200160002060006101000a81548160ff0219169083151502179055506000849080600181540180825580915050600190039060005260206000200160009091909190916101000a81548173ffffffffffffffffffffffffffffffffffffffff021916908373ffffffffffffffffffffffffffffffffffffffff160217905550600360008154809291906105fb906121aa565b9190505550808473ffffffffffffffffffffffffffffffffffffffff167f1effd8f7a331d696023fc8f1833eb151874826d98bf93626952aa991f740b72760405160405180910390a350505050565b80600160008273ffffffffffffffffffffffffffffffffffffffff1673ffffffffffffffffffffffffffffffffffffffff16815260200190815260200160002060009054906101000a900460ff166106d7576040517f08c379a00000000000000000000000000000000000000000000000000000000081526004016106ce90611e93565b60405180910390fd5b82600480549050811061071f576040517f08c379a000000000000000000000000000000000000000000000000000000000815260040161071690611df3565b60405180910390fd5b836004818154811061075a577f4e487b7100000000000000000000000000000000000000000000000000000000600052603260045260246000fd5b906000526020600020906006020160040160009054906101000a900460ff16156107b9576040517f08c379a00000000000000000000000000000000000000000000000000000000081526004016107b090611e33565b60405180910390fd5b6000600486815481106107f5577f4e487b7100000000000000000000000000000000000000000000000000000000600052603260045260246000fd5b9060005260206000209060060201905060035460646002546108179190612005565b6108219190612036565b81600501541015610867576040517f08c379a000000000000000000000000000000000000000000000000000000000815260040161085e90611e73565b60405180910390fd5b60018160040160006101000a81548160ff02191690831515021790555060008160010160009054906101000a900473ffffffffffffffffffffffffffffffffffffffff1673ffffffffffffffffffffffffffffffffffffffff168260020154836003016040516108d79190611cfc565b60006040518083038185875af1925050503d8060008114610914576040519150601f19603f3d011682016040523d82523d6000602084013e610919565b606091505b505090508061095d576040517f08c379a000000000000000000000000000000000000000000000000000000000815260040161095490611dd3565b60405180910390fd5b868673ffffffffffffffffffffffffffffffffffffffff167f5445f318f4f5fcfb66592e68e0cc5822aa15664039bd5f0ffde24c5a8142b1ac60405160405180910390a350505050505050565b6000600480549050905090565b60016020528060005260406000206000915054906101000a900460ff1681565b60008060006060600080600060048881548110610a1d577f4e487b7100000000000000000000000000000000000000000000000000000000600052603260045260246000fd5b906000526020600020906006020190508060000160009054906101000a900473ffffffffffffffffffffffffffffffffffffffff168160010160009054906101000a900473ffffffffffffffffffffffffffffffffffffffff168260020154836003018460040160009054906101000a900460ff168560050154828054610aa390612178565b80601f0160208091040260200160405190810160405280929190818152602001828054610acf90612178565b8015610b1c5780601f10610af157610100808354040283529160200191610b1c565b820191906000526020600020905b815481529060010190602001808311610aff57829003601f168201915b505050505092509650965096509650965096505091939550919395565b84600160008273ffffffffffffffffffffffffffffffffffffffff1673ffffffffffffffffffffffffffffffffffffffff16815260200190815260200160002060009054906101000a900460ff16610bc6576040517f08c379a0000000000000000000000000000000000000000000000000000000008152600401610bbd90611e93565b60405180910390fd5b6000600480549050905060046040518060c001604052808973ffffffffffffffffffffffffffffffffffffffff1681526020018873ffffffffffffffffffffffffffffffffffffffff16815260200187815260200186868080601f016020809104026020016040519081016040528093929190818152602001838380828437600081840152601f19601f8201169050808301925050505050505081526020016000151581526020016000815250908060018154018082558091505060019003906000526020600020906006020160009091909190915060008201518160000160006101000a81548173ffffffffffffffffffffffffffffffffffffffff021916908373ffffffffffffffffffffffffffffffffffffffff16021790555060208201518160010160006101000a81548173ffffffffffffffffffffffffffffffffffffffff021916908373ffffffffffffffffffffffffffffffffffffffff160217905550604082015181600201556060820151816003019080519060200190610d5092919061180f565b5060808201518160040160006101000a81548160ff02191690831515021790555060a0820151816005015550508573ffffffffffffffffffffffffffffffffffffffff16818873ffffffffffffffffffffffffffffffffffffffff167fd5a05bf70715ad82a09a756320284a1b54c9ff74cd0f8cce6219e79b563fe59d888888604051610ddf93929190611ece565b60405180910390a450505050505050565b60035481565b80600160008273ffffffffffffffffffffffffffffffffffffffff1673ffffffffffffffffffffffffffffffffffffffff16815260200190815260200160002060009054906101000a900460ff16610e83576040517f08c379a0000000000000000000000000000000000000000000000000000000008152600401610e7a90611e93565b60405180910390fd5b826004805490508110610ecb576040517f08c379a0000000000000000000000000000000000000000000000000000000008152600401610ec290611df3565b60405180910390fd5b8360048181548110610f06577f4e487b7100000000000000000000000000000000000000000000000000000000600052603260045260246000fd5b906000526020600020906006020160040160009054906101000a900460ff1615610f65576040517f08c379a0000000000000000000000000000000000000000000000000000000008152600401610f5c90611e33565b60405180910390fd5b84846005600083815260200190815260200160002060008273ffffffffffffffffffffffffffffffffffffffff1673ffffffffffffffffffffffffffffffffffffffff16815260200190815260200160002060009054906101000a900460ff1615611005576040517f08c379a0000000000000000000000000000000000000000000000000000000008152600401610ffc90611e13565b60405180910390fd5b600060048881548110611041577f4e487b7100000000000000000000000000000000000000000000000000000000600052603260045260246000fd5b9060005260206000209060060201905060018160050160008282546110669190611faf565b925050819055506001600560008a815260200190815260200160002060008973ffffffffffffffffffffffffffffffffffffffff1673ffffffffffffffffffffffffffffffffffffffff16815260200190815260200160002060006101000a81548160ff021916908315150217905550878773ffffffffffffffffffffffffffffffffffffffff167f5cbe105e36805f7820e291f799d5794ff948af2a5f664e580382defb6339004160405160405180910390a35050505050505050565b80600160008273ffffffffffffffffffffffffffffffffffffffff1673ffffffffffffffffffffffffffffffffffffffff16815260200190815260200160002060009054906101000a900460ff166111b1576040517f08c379a00000000000000000000000000000000000000000000000000000000081526004016111a890611e93565b60405180910390fd5b8260048054905081106111f9576040517f08c379a00000000000000000000000000000000000000000000000000000000081526004016111f090611df3565b60405180910390fd5b8360048181548110611234577f4e487b7100000000000000000000000000000000000000000000000000000000600052603260045260246000fd5b906000526020600020906006020160040160009054906101000a900460ff1615611293576040517f08c379a000000000000000000000000000000000000000000000000000000000815260040161128a90611e33565b60405180910390fd5b6000600486815481106112cf577f4e487b7100000000000000000000000000000000000000000000000000000000600052603260045260246000fd5b906000526020600020906006020190506005600087815260200190815260200160002060008673ffffffffffffffffffffffffffffffffffffffff1673ffffffffffffffffffffffffffffffffffffffff16815260200190815260200160002060009054906101000a900460ff1661137c576040517f08c379a000000000000000000000000000000000000000000000000000000000815260040161137390611e53565b60405180910390fd5b60018160050160008282546113919190612090565b9250508190555060006005600088815260200190815260200160002060008773ffffffffffffffffffffffffffffffffffffffff1673ffffffffffffffffffffffffffffffffffffffff16815260200190815260200160002060006101000a81548160ff021916908315150217905550858573ffffffffffffffffffffffffffffffffffffffff167ff0dca620e2e81f7841d07bcc105e1704fb01475b278a9d4c236e1c62945edd5560405160405180910390a3505050505050565b60056020528160005260406000206020528060005260406000206000915091509054906101000a900460ff1681565b6004818154811061148c57600080fd5b90600052602060002090600602016000915090508060000160009054906101000a900473ffffffffffffffffffffffffffffffffffffffff16908060010160009054906101000a900473ffffffffffffffffffffffffffffffffffffffff169080600201549080600301805461150190612178565b80601f016020809104026020016040519081016040528092919081815260200182805461152d90612178565b801561157a5780601f1061154f5761010080835404028352916020019161157a565b820191906000526020600020905b81548152906001019060200180831161155d57829003601f168201915b5050505050908060040160009054906101000a900460ff16908060050154905086565b6060600080548060200260200160405190810160405280929190818152602001828054801561162157602002820191906000526020600020905b8160009054906101000a900473ffffffffffffffffffffffffffffffffffffffff1673ffffffffffffffffffffffffffffffffffffffff16815260200190600101908083116115d7575b5050505050905090565b60025481565b80600160008273ffffffffffffffffffffffffffffffffffffffff1673ffffffffffffffffffffffffffffffffffffffff16815260200190815260200160002060009054906101000a900460ff166116be576040517f08c379a00000000000000000000000000000000000000000000000000000000081526004016116b590611e93565b60405180910390fd5b82600281905550505050565b80600160008273ffffffffffffffffffffffffffffffffffffffff1673ffffffffffffffffffffffffffffffffffffffff16815260200190815260200160002060009054906101000a900460ff16611757576040517f08c379a000000000000000000000000000000000000000000000000000000000815260040161174e90611e93565b60405180910390fd5b6000600160008573ffffffffffffffffffffffffffffffffffffffff1673ffffffffffffffffffffffffffffffffffffffff16815260200190815260200160002060006101000a81548160ff021916908315150217905550600360008154809291906117c29061214e565b91905055508273ffffffffffffffffffffffffffffffffffffffff167fac6e8398676cf37429d530b81144d7079e99f4fe9d28b0d88c4a749ceccbe8cd60405160405180910390a2505050565b82805461181b90612178565b90600052602060002090601f01602090048101928261183d5760008555611884565b82601f1061185657805160ff1916838001178555611884565b82800160010185558215611884579182015b82811115611883578251825591602001919060010190611868565b5b5090506118919190611895565b5090565b5b808211156118ae576000816000905550600101611896565b5090565b6000813590506118c1816123b0565b92915050565b60008083601f8401126118d957600080fd5b8235905067ffffffffffffffff8111156118f257600080fd5b60208301915083600182028301111561190a57600080fd5b9250929050565b600081359050611920816123c7565b92915050565b60006020828403121561193857600080fd5b6000611946848285016118b2565b91505092915050565b6000806040838503121561196257600080fd5b6000611970858286016118b2565b9250506020611981858286016118b2565b9150509250929050565b6000806000806000608086880312156119a357600080fd5b60006119b1888289016118b2565b95505060206119c2888289016118b2565b94505060406119d388828901611911565b935050606086013567ffffffffffffffff8111156119f057600080fd5b6119fc888289016118c7565b92509250509295509295909350565b600060208284031215611a1d57600080fd5b6000611a2b84828501611911565b91505092915050565b60008060408385031215611a4757600080fd5b6000611a5585828601611911565b9250506020611a66858286016118b2565b9150509250929050565b6000611a7c8383611a88565b60208301905092915050565b611a91816120c4565b82525050565b611aa0816120c4565b82525050565b6000611ab182611f4e565b611abb8185611f71565b9350611ac683611f29565b8060005b83811015611af7578151611ade8882611a70565b9750611ae983611f64565b925050600181019050611aca565b5085935050505092915050565b611b0d816120d6565b82525050565b6000611b1f8385611f82565b9350611b2c83858461210c565b611b3583612280565b840190509392505050565b6000611b4b82611f59565b611b558185611f82565b9350611b6581856020860161211b565b611b6e81612280565b840191505092915050565b60008154611b8681612178565b611b908186611f93565b94506001821660008114611bab5760018114611bbc57611bef565b60ff19831686528186019350611bef565b611bc585611f39565b60005b83811015611be757815481890152600182019150602081019050611bc8565b838801955050505b50505092915050565b6000611c05600983611f9e565b9150611c1082612291565b602082019050919050565b6000611c28601183611f9e565b9150611c33826122ba565b602082019050919050565b6000611c4b601483611f9e565b9150611c56826122e3565b602082019050919050565b6000611c6e601383611f9e565b9150611c798261230c565b602082019050919050565b6000611c91601083611f9e565b9150611c9c82612335565b602082019050919050565b6000611cb4601183611f9e565b9150611cbf8261235e565b602082019050919050565b6000611cd7600983611f9e565b9150611ce282612387565b602082019050919050565b611cf681612102565b82525050565b6000611d088284611b79565b915081905092915050565b6000602082019050611d286000830184611a97565b92915050565b600060c082019050611d436000830189611a97565b611d506020830188611a97565b611d5d6040830187611ced565b8181036060830152611d6f8186611b40565b9050611d7e6080830185611b04565b611d8b60a0830184611ced565b979650505050505050565b60006020820190508181036000830152611db08184611aa6565b905092915050565b6000602082019050611dcd6000830184611b04565b92915050565b60006020820190508181036000830152611dec81611bf8565b9050919050565b60006020820190508181036000830152611e0c81611c1b565b9050919050565b60006020820190508181036000830152611e2c81611c3e565b9050919050565b60006020820190508181036000830152611e4c81611c61565b9050919050565b60006020820190508181036000830152611e6c81611c84565b9050919050565b60006020820190508181036000830152611e8c81611ca7565b9050919050565b60006020820190508181036000830152611eac81611cca565b9050919050565b6000602082019050611ec86000830184611ced565b92915050565b6000604082019050611ee36000830186611ced565b8181036020830152611ef6818486611b13565b9050949350505050565b6000604082019050611f156000830185611ced565b611f226020830184611ced565b9392505050565b6000819050602082019050919050565b60008190508160005260206000209050919050565b600081519050919050565b600081519050919050565b6000602082019050919050565b600082825260208201905092915050565b600082825260208201905092915050565b600081905092915050565b600082825260208201905092915050565b6000611fba82612102565b9150611fc583612102565b9250827fffffffffffffffffffffffffffffffffffffffffffffffffffffffffffffffff03821115611ffa57611ff96121f3565b5b828201905092915050565b600061201082612102565b915061201b83612102565b92508261202b5761202a612222565b5b828204905092915050565b600061204182612102565b915061204c83612102565b9250817fffffffffffffffffffffffffffffffffffffffffffffffffffffffffffffffff0483118215151615612085576120846121f3565b5b828202905092915050565b600061209b82612102565b91506120a683612102565b9250828210156120b9576120b86121f3565b5b828203905092915050565b60006120cf826120e2565b9050919050565b60008115159050919050565b600073ffffffffffffffffffffffffffffffffffffffff82169050919050565b6000819050919050565b82818337600083830152505050565b60005b8381101561213957808201518184015260208101905061211e565b83811115612148576000848401525b50505050565b600061215982612102565b9150600082141561216d5761216c6121f3565b5b600182039050919050565b6000600282049050600182168061219057607f821691505b602082108114156121a4576121a3612251565b5b50919050565b60006121b582612102565b91507fffffffffffffffffffffffffffffffffffffffffffffffffffffffffffffffff8214156121e8576121e76121f3565b5b600182019050919050565b7f4e487b7100000000000000000000000000000000000000000000000000000000600052601160045260246000fd5b7f4e487b7100000000000000000000000000000000000000000000000000000000600052601260045260246000fd5b7f4e487b7100000000000000000000000000000000000000000000000000000000600052602260045260246000fd5b6000601f19601f8301169050919050565b7f7478206661696c65640000000000000000000000000000000000000000000000600082015250565b7f747820646f6573206e6f74206578697374000000000000000000000000000000600082015250565b7f747820616c726561647920636f6e6669726d6564000000000000000000000000600082015250565b7f747820616c726561647920657865637574656400000000000000000000000000600082015250565b7f7478206e6f7420636f6e6669726d656400000000000000000000000000000000600082015250565b7f63616e6e6f742065786563757465207478000000000000000000000000000000600082015250565b7f6e6f74206f776e65720000000000000000000000000000000000000000000000600082015250565b6123b9816120c4565b81146123c457600080fd5b50565b6123d081612102565b81146123db57600080fd5b5056fea2646970667358221220b25af008af1a30c09a0b4ae386d8d51d4b9c12a3a2d4d4d58f88b2107d8dcf9f64736f6c63430008040033a2646970667358221220400d4879344b6c132745347955194aa70b9bbea885851b8779a511d3caf6009c64736f6c63430008040033",
  "linkReferences": {},
  "deployedLinkReferences": {}
}