{
  "_format": "hh-sol-artifact-1",
  "contractName": "MultiSigWalletFactory",
  "sourceName": "contracts/MultiSigWalletFactory.sol",
  "abi": [
    {
      "inputs": [
        {
          "internalType": "contract MultiSigWallet",
          "name": "wallet",
          "type": "address"
        },
        {
          "internalType": "address",
          "name": "newOwner",
          "type": "address"
        }
      ],
      "name": "addOwner",
      "outputs": [],
      "stateMutability": "nonpayable",
      "type": "function"
    },
    {
      "inputs": [
        {
          "internalType": "contract MultiSigWallet",
          "name": "wallet",
          "type": "address"
        },
        {
          "internalType": "uint256",
          "name": "_txIndex",
          "type": "uint256"
        }
      ],
      "name": "confirmTransaction",
      "outputs": [],
      "stateMutability": "nonpayable",
      "type": "function"
    },
    {
      "inputs": [
        {
          "internalType": "address[]",
          "name": "_owners",
          "type": "address[]"
        },
        {
          "internalType": "uint256",
          "name": "_percentConfirmationsRequired",
          "type": "uint256"
        }
      ],
      "name": "createWallet",
      "outputs": [
        {
          "internalType": "contract MultiSigWallet",
          "name": "",
          "type": "address"
        }
      ],
      "stateMutability": "nonpayable",
      "type": "function"
    },
    {
      "inputs": [
        {
          "internalType": "contract MultiSigWallet",
          "name": "wallet",
          "type": "address"
        },
        {
          "internalType": "uint256",
          "name": "_txIndex",
          "type": "uint256"
        }
      ],
      "name": "executeTransaction",
      "outputs": [],
      "stateMutability": "nonpayable",
      "type": "function"
    },
    {
      "inputs": [
        {
          "internalType": "contract MultiSigWallet",
          "name": "wallet",
          "type": "address"
        }
      ],
      "name": "getOwners",
      "outputs": [
        {
          "internalType": "address[]",
          "name": "",
          "type": "address[]"
        }
      ],
      "stateMutability": "view",
      "type": "function"
    },
    {
      "inputs": [
        {
          "internalType": "contract MultiSigWallet",
          "name": "wallet",
          "type": "address"
        }
      ],
      "name": "getPercentConfirmationsRequired",
      "outputs": [
        {
          "internalType": "uint256",
          "name": "",
          "type": "uint256"
        }
      ],
      "stateMutability": "view",
      "type": "function"
    },
    {
      "inputs": [
        {
          "internalType": "contract MultiSigWallet",
          "name": "wallet",
          "type": "address"
        },
        {
          "internalType": "uint256",
          "name": "_txIndex",
          "type": "uint256"
        }
      ],
      "name": "getTransaction",
      "outputs": [
        {
          "internalType": "address",
          "name": "from",
          "type": "address"
        },
        {
          "internalType": "address",
          "name": "to",
          "type": "address"
        },
        {
          "internalType": "uint256",
          "name": "value",
          "type": "uint256"
        },
        {
          "internalType": "bytes",
          "name": "data",
          "type": "bytes"
        },
        {
          "internalType": "bool",
          "name": "executed",
          "type": "bool"
        },
        {
          "internalType": "uint256",
          "name": "numConfirmations",
          "type": "uint256"
        }
      ],
      "stateMutability": "view",
      "type": "function"
    },
    {
      "inputs": [
        {
          "internalType": "contract MultiSigWallet",
          "name": "wallet",
          "type": "address"
        }
      ],
      "name": "getTransactionCount",
      "outputs": [
        {
          "internalType": "uint256",
          "name": "",
          "type": "uint256"
        }
      ],
      "stateMutability": "view",
      "type": "function"
    },
    {
      "inputs": [],
      "name": "getWalletCreators",
      "outputs": [
        {
          "internalType": "address[]",
          "name": "",
          "type": "address[]"
        }
      ],
      "stateMutability": "view",
      "type": "function"
    },
    {
      "inputs": [],
      "name": "getWallets",
      "outputs": [
        {
          "internalType": "contract MultiSigWallet[]",
          "name": "",
          "type": "address[]"
        }
      ],
      "stateMutability": "view",
      "type": "function"
    },
    {
      "inputs": [
        {
          "internalType": "contract MultiSigWallet",
          "name": "wallet",
          "type": "address"
        },
        {
          "internalType": "address",
          "name": "existingOwner",
          "type": "address"
        }
      ],
      "name": "removeOwner",
      "outputs": [],
      "stateMutability": "nonpayable",
      "type": "function"
    },
    {
      "inputs": [
        {
          "internalType": "contract MultiSigWallet",
          "name": "wallet",
          "type": "address"
        },
        {
          "internalType": "uint256",
          "name": "_txIndex",
          "type": "uint256"
        }
      ],
      "name": "revokeConfirmation",
      "outputs": [],
      "stateMutability": "nonpayable",
      "type": "function"
    },
    {
      "inputs": [
        {
          "internalType": "contract MultiSigWallet",
          "name": "wallet",
          "type": "address"
        },
        {
          "internalType": "address",
          "name": "_from",
          "type": "address"
        },
        {
          "internalType": "address",
          "name": "_to",
          "type": "address"
        },
        {
          "internalType": "uint256",
          "name": "_value",
          "type": "uint256"
        },
        {
          "internalType": "bytes",
          "name": "_data",
          "type": "bytes"
        }
      ],
      "name": "submitTransaction",
      "outputs": [],
      "stateMutability": "nonpayable",
      "type": "function"
    },
    {
      "inputs": [
        {
          "internalType": "uint256",
          "name": "",
          "type": "uint256"
        }
      ],
      "name": "walletCreators",
      "outputs": [
        {
          "internalType": "address",
          "name": "",
          "type": "address"
        }
      ],
      "stateMutability": "view",
      "type": "function"
    },
    {
      "inputs": [
        {
          "internalType": "uint256",
          "name": "",
          "type": "uint256"
        }
      ],
      "name": "wallets",
      "outputs": [
        {
          "internalType": "contract MultiSigWallet",
          "name": "",
          "type": "address"
        }
      ],
      "stateMutability": "view",
      "type": "function"
    }
  ],
  "bytecode": "0x608060405234801561001057600080fd5b50614372806100206000396000f3fe60806040523480156200001157600080fd5b50600436106200010c5760003560e01c8063887e7be511620000a5578063db7a4605116200006f578063db7a460514620002e6578063dcf1d5dc1462000308578063fbe5ce0a146200033e578063fd8b84b1146200035e576200010c565b8063887e7be514620002335780638d300bdc146200025357806391dc2e711462000289578063a43293b414620002ab576200010c565b80633800a55d11620000e75780633800a55d14620001875780636139dbb914620001bd578063683ae08314620001dd5780637ad71f7214620001fd576200010c565b806316d390bf14620001115780631e21b6be146200013157806323ca0cd21462000151575b600080fd5b6200012f600480360381019062000129919062000f9d565b62000394565b005b6200014f600480360381019062000149919062000fde565b62000409565b005b6200016f600480360381019062000169919062000f71565b62000485565b6040516200017e91906200146c565b60405180910390f35b620001a560048036038101906200019f919062000f17565b62000510565b604051620001b491906200144f565b60405180910390f35b620001db6004803603810190620001d5919062001079565b62000620565b005b620001fb6004803603810190620001f5919062001079565b62000695565b005b6200021b6004803603810190620002159190620010ba565b6200070a565b6040516200022a91906200144f565b60405180910390f35b6200025160048036038101906200024b919062001079565b6200074a565b005b6200027160048036038101906200026b9190620010ba565b620007bf565b604051620002809190620012c1565b60405180910390f35b62000293620007ff565b604051620002a29190620013d3565b60405180910390f35b620002c96004803603810190620002c3919062001079565b6200088f565b604051620002dd969594939291906200135f565b60405180910390f35b620002f062000943565b604051620002ff91906200142b565b60405180910390f35b62000326600480360381019062000320919062000f71565b620009d3565b6040516200033591906200146c565b60405180910390f35b6200035c600480360381019062000356919062000f9d565b62000a5e565b005b6200037c600480360381019062000376919062000f71565b62000ad3565b6040516200038b9190620013d3565b60405180910390f35b8173ffffffffffffffffffffffffffffffffffffffff166316d390bf82336040518363ffffffff1660e01b8152600401620003d1929190620012de565b600060405180830381600087803b158015620003ec57600080fd5b505af115801562000401573d6000803e3d6000fd5b505050505050565b8473ffffffffffffffffffffffffffffffffffffffff166343319cf0858585856040518563ffffffff1660e01b81526004016200044a94939291906200130b565b600060405180830381600087803b1580156200046557600080fd5b505af11580156200047a573d6000803e3d6000fd5b505050505050505050565b60008173ffffffffffffffffffffffffffffffffffffffff16632e7700f06040518163ffffffff1660e01b815260040160206040518083038186803b158015620004ce57600080fd5b505afa158015620004e3573d6000803e3d6000fd5b505050506040513d601f19601f82011682018060405250810190620005099190620010e6565b9050919050565b6000808383604051620005239062000b63565b62000530929190620013f7565b604051809103906000f0801580156200054d573d6000803e3d6000fd5b5090506000819080600181540180825580915050600190039060005260206000200160009091909190916101000a81548173ffffffffffffffffffffffffffffffffffffffff021916908373ffffffffffffffffffffffffffffffffffffffff1602179055506001339080600181540180825580915050600190039060005260206000200160009091909190916101000a81548173ffffffffffffffffffffffffffffffffffffffff021916908373ffffffffffffffffffffffffffffffffffffffff1602179055508091505092915050565b8173ffffffffffffffffffffffffffffffffffffffff16636688c8f182336040518363ffffffff1660e01b81526004016200065d92919062001489565b600060405180830381600087803b1580156200067857600080fd5b505af11580156200068d573d6000803e3d6000fd5b505050505050565b8173ffffffffffffffffffffffffffffffffffffffff166329ba878082336040518363ffffffff1660e01b8152600401620006d292919062001489565b600060405180830381600087803b158015620006ed57600080fd5b505af115801562000702573d6000803e3d6000fd5b505050505050565b600081815481106200071b57600080fd5b906000526020600020016000915054906101000a900473ffffffffffffffffffffffffffffffffffffffff1681565b8173ffffffffffffffffffffffffffffffffffffffff166360f247b582336040518363ffffffff1660e01b81526004016200078792919062001489565b600060405180830381600087803b158015620007a257600080fd5b505af1158015620007b7573d6000803e3d6000fd5b505050505050565b60018181548110620007d057600080fd5b906000526020600020016000915054906101000a900473ffffffffffffffffffffffffffffffffffffffff1681565b606060018054806020026020016040519081016040528092919081815260200182805480156200088557602002820191906000526020600020905b8160009054906101000a900473ffffffffffffffffffffffffffffffffffffffff1673ffffffffffffffffffffffffffffffffffffffff16815260200190600101908083116200083a575b5050505050905090565b600080600060606000808773ffffffffffffffffffffffffffffffffffffffff166333ea3dc8886040518263ffffffff1660e01b8152600401620008d491906200146c565b60006040518083038186803b158015620008ed57600080fd5b505afa15801562000902573d6000803e3d6000fd5b505050506040513d6000823e3d601f19601f820116820180604052508101906200092d919062000e23565b9550955095509550955095509295509295509295565b60606000805480602002602001604051908101604052809291908181526020018280548015620009c957602002820191906000526020600020905b8160009054906101000a900473ffffffffffffffffffffffffffffffffffffffff1673ffffffffffffffffffffffffffffffffffffffff16815260200190600101908083116200097e575b5050505050905090565b60008173ffffffffffffffffffffffffffffffffffffffff1663c3516bc46040518163ffffffff1660e01b815260040160206040518083038186803b15801562000a1c57600080fd5b505afa15801562000a31573d6000803e3d6000fd5b505050506040513d601f19601f8201168201806040525081019062000a579190620010e6565b9050919050565b8173ffffffffffffffffffffffffffffffffffffffff1663fbe5ce0a82336040518363ffffffff1660e01b815260040162000a9b929190620012de565b600060405180830381600087803b15801562000ab657600080fd5b505af115801562000acb573d6000803e3d6000fd5b505050505050565b60608173ffffffffffffffffffffffffffffffffffffffff1663a0e67e2b6040518163ffffffff1660e01b815260040160006040518083038186803b15801562000b1c57600080fd5b505afa15801562000b31573d6000803e3d6000fd5b505050506040513d6000823e3d601f19601f8201168201806040525081019062000b5c919062000ed2565b9050919050565b612bad806200179083390190565b600062000b8862000b8284620014df565b620014b6565b9050808382526020820190508285602086028201111562000ba857600080fd5b60005b8581101562000bdc578162000bc1888262000ce5565b84526020840193506020830192505060018101905062000bab565b5050509392505050565b600062000bfd62000bf784620014df565b620014b6565b9050808382526020820190508285602086028201111562000c1d57600080fd5b60005b8581101562000c51578162000c36888262000cfc565b84526020840193506020830192505060018101905062000c20565b5050509392505050565b600062000c7262000c6c846200150e565b620014b6565b90508281526020810184848401111562000c8b57600080fd5b62000c988482856200166c565b509392505050565b600062000cb762000cb1846200150e565b620014b6565b90508281526020810184848401111562000cd057600080fd5b62000cdd8482856200167b565b509392505050565b60008135905062000cf68162001727565b92915050565b60008151905062000d0d8162001727565b92915050565b600082601f83011262000d2557600080fd5b813562000d3784826020860162000b71565b91505092915050565b600082601f83011262000d5257600080fd5b815162000d6484826020860162000be6565b91505092915050565b60008151905062000d7e8162001741565b92915050565b600082601f83011262000d9657600080fd5b813562000da884826020860162000c5b565b91505092915050565b600082601f83011262000dc357600080fd5b815162000dd584826020860162000ca0565b91505092915050565b60008135905062000def816200175b565b92915050565b60008135905062000e068162001775565b92915050565b60008151905062000e1d8162001775565b92915050565b60008060008060008060c0878903121562000e3d57600080fd5b600062000e4d89828a0162000cfc565b965050602062000e6089828a0162000cfc565b955050604062000e7389828a0162000e0c565b945050606087015167ffffffffffffffff81111562000e9157600080fd5b62000e9f89828a0162000db1565b935050608062000eb289828a0162000d6d565b92505060a062000ec589828a0162000e0c565b9150509295509295509295565b60006020828403121562000ee557600080fd5b600082015167ffffffffffffffff81111562000f0057600080fd5b62000f0e8482850162000d40565b91505092915050565b6000806040838503121562000f2b57600080fd5b600083013567ffffffffffffffff81111562000f4657600080fd5b62000f548582860162000d13565b925050602062000f678582860162000df5565b9150509250929050565b60006020828403121562000f8457600080fd5b600062000f948482850162000dde565b91505092915050565b6000806040838503121562000fb157600080fd5b600062000fc18582860162000dde565b925050602062000fd48582860162000ce5565b9150509250929050565b600080600080600060a0868803121562000ff757600080fd5b6000620010078882890162000dde565b95505060206200101a8882890162000ce5565b94505060406200102d8882890162000ce5565b9350506060620010408882890162000df5565b925050608086013567ffffffffffffffff8111156200105e57600080fd5b6200106c8882890162000d84565b9150509295509295909350565b600080604083850312156200108d57600080fd5b60006200109d8582860162000dde565b9250506020620010b08582860162000df5565b9150509250929050565b600060208284031215620010cd57600080fd5b6000620010dd8482850162000df5565b91505092915050565b600060208284031215620010f957600080fd5b6000620011098482850162000e0c565b91505092915050565b600062001120838362001146565b60208301905092915050565b60006200113a83836200128e565b60208301905092915050565b6200115181620015d2565b82525050565b6200116281620015d2565b82525050565b6000620011758262001564565b6200118181856200159f565b93506200118e8362001544565b8060005b83811015620011c5578151620011a9888262001112565b9750620011b68362001585565b92505060018101905062001192565b5085935050505092915050565b6000620011df826200156f565b620011eb8185620015b0565b9350620011f88362001554565b8060005b838110156200122f5781516200121388826200112c565b9750620012208362001592565b925050600181019050620011fc565b5085935050505092915050565b6200124781620015fa565b82525050565b60006200125a826200157a565b620012668185620015c1565b9350620012788185602086016200167b565b620012838162001716565b840191505092915050565b620012998162001644565b82525050565b620012aa8162001644565b82525050565b620012bb816200163a565b82525050565b6000602082019050620012d8600083018462001157565b92915050565b6000604082019050620012f5600083018562001157565b62001304602083018462001157565b9392505050565b600060808201905062001322600083018762001157565b62001331602083018662001157565b620013406040830185620012b0565b81810360608301526200135481846200124d565b905095945050505050565b600060c08201905062001376600083018962001157565b62001385602083018862001157565b620013946040830187620012b0565b8181036060830152620013a881866200124d565b9050620013b960808301856200123c565b620013c860a0830184620012b0565b979650505050505050565b60006020820190508181036000830152620013ef818462001168565b905092915050565b6000604082019050818103600083015262001413818562001168565b9050620014246020830184620012b0565b9392505050565b60006020820190508181036000830152620014478184620011d2565b905092915050565b60006020820190506200146660008301846200129f565b92915050565b6000602082019050620014836000830184620012b0565b92915050565b6000604082019050620014a06000830185620012b0565b620014af602083018462001157565b9392505050565b6000620014c2620014d5565b9050620014d08282620016b1565b919050565b6000604051905090565b600067ffffffffffffffff821115620014fd57620014fc620016e7565b5b602082029050602081019050919050565b600067ffffffffffffffff8211156200152c576200152b620016e7565b5b620015378262001716565b9050602081019050919050565b6000819050602082019050919050565b6000819050602082019050919050565b600081519050919050565b600081519050919050565b600081519050919050565b6000602082019050919050565b6000602082019050919050565b600082825260208201905092915050565b600082825260208201905092915050565b600082825260208201905092915050565b6000620015df826200161a565b9050919050565b6000620015f3826200161a565b9050919050565b60008115159050919050565b60006200161382620015e6565b9050919050565b600073ffffffffffffffffffffffffffffffffffffffff82169050919050565b6000819050919050565b6000620016518262001658565b9050919050565b600062001665826200161a565b9050919050565b82818337600083830152505050565b60005b838110156200169b5780820151818401526020810190506200167e565b83811115620016ab576000848401525b50505050565b620016bc8262001716565b810181811067ffffffffffffffff82111715620016de57620016dd620016e7565b5b80604052505050565b7f4e487b7100000000000000000000000000000000000000000000000000000000600052604160045260246000fd5b6000601f19601f8301169050919050565b6200173281620015d2565b81146200173e57600080fd5b50565b6200174c81620015fa565b81146200175857600080fd5b50565b620017668162001606565b81146200177257600080fd5b50565b62001780816200163a565b81146200178c57600080fd5b5056fe60806040523480156200001157600080fd5b5060405162002bad38038062002bad8339818101604052810190620000379190620003e6565b60008251116200007e576040517f08c379a00000000000000000000000000000000000000000000000000000000081526004016200007590620004fe565b60405180910390fd5b60008111801562000090575060648111155b620000d2576040517f08c379a0000000000000000000000000000000000000000000000000000000008152600401620000c99062000542565b60405180910390fd5b60005b8251811015620002fa5760008382815181106200011b577f4e487b7100000000000000000000000000000000000000000000000000000000600052603260045260246000fd5b60200260200101519050600073ffffffffffffffffffffffffffffffffffffffff168173ffffffffffffffffffffffffffffffffffffffff16141562000198576040517f08c379a00000000000000000000000000000000000000000000000000000000081526004016200018f9062000520565b60405180910390fd5b600260008273ffffffffffffffffffffffffffffffffffffffff1673ffffffffffffffffffffffffffffffffffffffff16815260200190815260200160002060009054906101000a900460ff161562000228576040517f08c379a00000000000000000000000000000000000000000000000000000000081526004016200021f90620004dc565b60405180910390fd5b6001600260008373ffffffffffffffffffffffffffffffffffffffff1673ffffffffffffffffffffffffffffffffffffffff16815260200190815260200160002060006101000a81548160ff0219169083151502179055506000819080600181540180825580915050600190039060005260206000200160009091909190916101000a81548173ffffffffffffffffffffffffffffffffffffffff021916908373ffffffffffffffffffffffffffffffffffffffff160217905550508080620002f19062000641565b915050620000d5565b50600080549050600181905550806003819055505050620007fc565b60006200032d62000327846200058d565b62000564565b905080838252602082019050828560208602820111156200034d57600080fd5b60005b858110156200038157816200036688826200038b565b84526020840193506020830192505060018101905062000350565b5050509392505050565b6000815190506200039c81620007c8565b92915050565b600082601f830112620003b457600080fd5b8151620003c684826020860162000316565b91505092915050565b600081519050620003e081620007e2565b92915050565b60008060408385031215620003fa57600080fd5b600083015167ffffffffffffffff8111156200041557600080fd5b6200042385828601620003a2565b92505060206200043685828601620003cf565b9150509250929050565b60006200044f601083620005bc565b91506200045c82620006fe565b602082019050919050565b600062000476600f83620005bc565b9150620004838262000727565b602082019050919050565b60006200049d600d83620005bc565b9150620004aa8262000750565b602082019050919050565b6000620004c4602c83620005bc565b9150620004d18262000779565b604082019050919050565b60006020820190508181036000830152620004f78162000440565b9050919050565b60006020820190508181036000830152620005198162000467565b9050919050565b600060208201905081810360008301526200053b816200048e565b9050919050565b600060208201905081810360008301526200055d81620004b5565b9050919050565b60006200057062000583565b90506200057e82826200060b565b919050565b6000604051905090565b600067ffffffffffffffff821115620005ab57620005aa620006be565b5b602082029050602081019050919050565b600082825260208201905092915050565b6000620005da82620005e1565b9050919050565b600073ffffffffffffffffffffffffffffffffffffffff82169050919050565b6000819050919050565b6200061682620006ed565b810181811067ffffffffffffffff82111715620006385762000637620006be565b5b80604052505050565b60006200064e8262000601565b91507fffffffffffffffffffffffffffffffffffffffffffffffffffffffffffffffff8214156200068457620006836200068f565b5b600182019050919050565b7f4e487b7100000000000000000000000000000000000000000000000000000000600052601160045260246000fd5b7f4e487b7100000000000000000000000000000000000000000000000000000000600052604160045260246000fd5b6000601f19601f8301169050919050565b7f6f776e6572206e6f7420756e6971756500000000000000000000000000000000600082015250565b7f6f776e6572732072657175697265640000000000000000000000000000000000600082015250565b7f696e76616c6964206f776e657200000000000000000000000000000000000000600082015250565b7f696e76616c69642070657263656e74616765206f66207265717569726564206360008201527f6f6e6669726d6174696f6e730000000000000000000000000000000000000000602082015250565b620007d381620005cd565b8114620007df57600080fd5b50565b620007ed8162000601565b8114620007f957600080fd5b50565b6123a1806200080c6000396000f3fe6080604052600436106100ec5760003560e01c806352e953db1161008a5780639ace38c2116100595780639ace38c214610364578063a0e67e2b146103a6578063c3516bc4146103d1578063fbe5ce0a146103fc57610143565b806352e953db146102aa57806360f247b5146102d55780636688c8f1146102fe57806380f59a651461032757610143565b80632e7700f0116100c65780632e7700f0146101d75780632f54bf6e1461020257806333ea3dc81461023f57806343319cf01461028157610143565b8063025e7c271461014857806316d390bf1461018557806329ba8780146101ae57610143565b36610143573373ffffffffffffffffffffffffffffffffffffffff167f90890809c654f11d6e72a28fa60149770a0d11ec6c92319d6ceb2bb0a4ea1a153447604051610139929190611dd7565b60405180910390a2005b600080fd5b34801561015457600080fd5b5061016f600480360381019061016a9190611911565b610425565b60405161017c9190611bec565b60405180910390f35b34801561019157600080fd5b506101ac60048036038101906101a7919061185a565b610464565b005b3480156101ba57600080fd5b506101d560048036038101906101d0919061193a565b610617565b005b3480156101e357600080fd5b506101ec610977565b6040516101f99190611d8c565b60405180910390f35b34801561020e57600080fd5b5061022960048036038101906102249190611831565b610984565b6040516102369190611c91565b60405180910390f35b34801561024b57600080fd5b5061026660048036038101906102619190611911565b6109a4565b60405161027896959493929190611c07565b60405180910390f35b34801561028d57600080fd5b506102a860048036038101906102a39190611896565b610b06565b005b3480156102b657600080fd5b506102bf610d76565b6040516102cc9190611d8c565b60405180910390f35b3480156102e157600080fd5b506102fc60048036038101906102f7919061193a565b610d7c565b005b34801561030a57600080fd5b506103256004803603810190610320919061193a565b6110aa565b005b34801561033357600080fd5b5061034e6004803603810190610349919061193a565b6113d3565b60405161035b9190611c91565b60405180910390f35b34801561037057600080fd5b5061038b60048036038101906103869190611911565b611402565b60405161039d96959493929190611c07565b60405180910390f35b3480156103b257600080fd5b506103bb611523565b6040516103c89190611c6f565b60405180910390f35b3480156103dd57600080fd5b506103e66115b1565b6040516103f39190611d8c565b60405180910390f35b34801561040857600080fd5b50610423600480360381019061041e919061185a565b6115b7565b005b6000818154811061043557600080fd5b906000526020600020016000915054906101000a900473ffffffffffffffffffffffffffffffffffffffff1681565b80600260008273ffffffffffffffffffffffffffffffffffffffff1673ffffffffffffffffffffffffffffffffffffffff16815260200190815260200160002060009054906101000a900460ff166104f1576040517f08c379a00000000000000000000000000000000000000000000000000000000081526004016104e890611d6c565b60405180910390fd5b6000808054905090506001600260008673ffffffffffffffffffffffffffffffffffffffff1673ffffffffffffffffffffffffffffffffffffffff16815260200190815260200160002060006101000a81548160ff0219169083151502179055506000849080600181540180825580915050600190039060005260206000200160009091909190916101000a81548173ffffffffffffffffffffffffffffffffffffffff021916908373ffffffffffffffffffffffffffffffffffffffff160217905550600160008154809291906105c890612108565b9190505550808473ffffffffffffffffffffffffffffffffffffffff167f1effd8f7a331d696023fc8f1833eb151874826d98bf93626952aa991f740b72760405160405180910390a350505050565b80600260008273ffffffffffffffffffffffffffffffffffffffff1673ffffffffffffffffffffffffffffffffffffffff16815260200190815260200160002060009054906101000a900460ff166106a4576040517f08c379a000000000000000000000000000000000000000000000000000000000815260040161069b90611d6c565b60405180910390fd5b8260048054905081106106ec576040517f08c379a00000000000000000000000000000000000000000000000000000000081526004016106e390611ccc565b60405180910390fd5b8360048181548110610727577f4e487b7100000000000000000000000000000000000000000000000000000000600052603260045260246000fd5b906000526020600020906006020160040160009054906101000a900460ff1615610786576040517f08c379a000000000000000000000000000000000000000000000000000000000815260040161077d90611d0c565b60405180910390fd5b6000600486815481106107c2577f4e487b7100000000000000000000000000000000000000000000000000000000600052603260045260246000fd5b9060005260206000209060060201905060015460646003546107e49190611f32565b6107ee9190611f63565b81600501541015610834576040517f08c379a000000000000000000000000000000000000000000000000000000000815260040161082b90611d4c565b60405180910390fd5b60018160040160006101000a81548160ff02191690831515021790555060008160010160009054906101000a900473ffffffffffffffffffffffffffffffffffffffff1673ffffffffffffffffffffffffffffffffffffffff168260020154836003016040516108a49190611bd5565b60006040518083038185875af1925050503d80600081146108e1576040519150601f19603f3d011682016040523d82523d6000602084013e6108e6565b606091505b505090508061092a576040517f08c379a000000000000000000000000000000000000000000000000000000000815260040161092190611cac565b60405180910390fd5b868673ffffffffffffffffffffffffffffffffffffffff167f5445f318f4f5fcfb66592e68e0cc5822aa15664039bd5f0ffde24c5a8142b1ac60405160405180910390a350505050505050565b6000600480549050905090565b60026020528060005260406000206000915054906101000a900460ff1681565b600080600060606000806000600488815481106109ea577f4e487b7100000000000000000000000000000000000000000000000000000000600052603260045260246000fd5b906000526020600020906006020190508060000160009054906101000a900473ffffffffffffffffffffffffffffffffffffffff168160010160009054906101000a900473ffffffffffffffffffffffffffffffffffffffff168260020154836003018460040160009054906101000a900460ff168560050154828054610a70906120a5565b80601f0160208091040260200160405190810160405280929190818152602001828054610a9c906120a5565b8015610ae95780601f10610abe57610100808354040283529160200191610ae9565b820191906000526020600020905b815481529060010190602001808311610acc57829003601f168201915b505050505092509650965096509650965096505091939550919395565b83600260008273ffffffffffffffffffffffffffffffffffffffff1673ffffffffffffffffffffffffffffffffffffffff16815260200190815260200160002060009054906101000a900460ff16610b93576040517f08c379a0000000000000000000000000000000000000000000000000000000008152600401610b8a90611d6c565b60405180910390fd5b6000600480549050905060046040518060c001604052808873ffffffffffffffffffffffffffffffffffffffff1681526020018773ffffffffffffffffffffffffffffffffffffffff1681526020018681526020018581526020016000151581526020016000815250908060018154018082558091505060019003906000526020600020906006020160009091909190915060008201518160000160006101000a81548173ffffffffffffffffffffffffffffffffffffffff021916908373ffffffffffffffffffffffffffffffffffffffff16021790555060208201518160010160006101000a81548173ffffffffffffffffffffffffffffffffffffffff021916908373ffffffffffffffffffffffffffffffffffffffff160217905550604082015181600201556060820151816003019080519060200190610cd99291906116fc565b5060808201518160040160006101000a81548160ff02191690831515021790555060a0820151816005015550508473ffffffffffffffffffffffffffffffffffffffff16818773ffffffffffffffffffffffffffffffffffffffff167fd5a05bf70715ad82a09a756320284a1b54c9ff74cd0f8cce6219e79b563fe59d8787604051610d66929190611da7565b60405180910390a4505050505050565b60015481565b80600260008273ffffffffffffffffffffffffffffffffffffffff1673ffffffffffffffffffffffffffffffffffffffff16815260200190815260200160002060009054906101000a900460ff16610e09576040517f08c379a0000000000000000000000000000000000000000000000000000000008152600401610e0090611d6c565b60405180910390fd5b826004805490508110610e51576040517f08c379a0000000000000000000000000000000000000000000000000000000008152600401610e4890611ccc565b60405180910390fd5b8360048181548110610e8c577f4e487b7100000000000000000000000000000000000000000000000000000000600052603260045260246000fd5b906000526020600020906006020160040160009054906101000a900460ff1615610eeb576040517f08c379a0000000000000000000000000000000000000000000000000000000008152600401610ee290611d0c565b60405180910390fd5b84846005600083815260200190815260200160002060008273ffffffffffffffffffffffffffffffffffffffff1673ffffffffffffffffffffffffffffffffffffffff16815260200190815260200160002060009054906101000a900460ff1615610f8b576040517f08c379a0000000000000000000000000000000000000000000000000000000008152600401610f8290611cec565b60405180910390fd5b600060048881548110610fc7577f4e487b7100000000000000000000000000000000000000000000000000000000600052603260045260246000fd5b906000526020600020906006020190506001816005016000828254610fec9190611edc565b925050819055506001600560008a815260200190815260200160002060008973ffffffffffffffffffffffffffffffffffffffff1673ffffffffffffffffffffffffffffffffffffffff16815260200190815260200160002060006101000a81548160ff021916908315150217905550878773ffffffffffffffffffffffffffffffffffffffff167f5cbe105e36805f7820e291f799d5794ff948af2a5f664e580382defb6339004160405160405180910390a35050505050505050565b80600260008273ffffffffffffffffffffffffffffffffffffffff1673ffffffffffffffffffffffffffffffffffffffff16815260200190815260200160002060009054906101000a900460ff16611137576040517f08c379a000000000000000000000000000000000000000000000000000000000815260040161112e90611d6c565b60405180910390fd5b82600480549050811061117f576040517f08c379a000000000000000000000000000000000000000000000000000000000815260040161117690611ccc565b60405180910390fd5b83600481815481106111ba577f4e487b7100000000000000000000000000000000000000000000000000000000600052603260045260246000fd5b906000526020600020906006020160040160009054906101000a900460ff1615611219576040517f08c379a000000000000000000000000000000000000000000000000000000000815260040161121090611d0c565b60405180910390fd5b600060048681548110611255577f4e487b7100000000000000000000000000000000000000000000000000000000600052603260045260246000fd5b906000526020600020906006020190506005600087815260200190815260200160002060008673ffffffffffffffffffffffffffffffffffffffff1673ffffffffffffffffffffffffffffffffffffffff16815260200190815260200160002060009054906101000a900460ff16611302576040517f08c379a00000000000000000000000000000000000000000000000000000000081526004016112f990611d2c565b60405180910390fd5b60018160050160008282546113179190611fbd565b9250508190555060006005600088815260200190815260200160002060008773ffffffffffffffffffffffffffffffffffffffff1673ffffffffffffffffffffffffffffffffffffffff16815260200190815260200160002060006101000a81548160ff021916908315150217905550858573ffffffffffffffffffffffffffffffffffffffff167ff0dca620e2e81f7841d07bcc105e1704fb01475b278a9d4c236e1c62945edd5560405160405180910390a3505050505050565b60056020528160005260406000206020528060005260406000206000915091509054906101000a900460ff1681565b6004818154811061141257600080fd5b90600052602060002090600602016000915090508060000160009054906101000a900473ffffffffffffffffffffffffffffffffffffffff16908060010160009054906101000a900473ffffffffffffffffffffffffffffffffffffffff1690806002015490806003018054611487906120a5565b80601f01602080910402602001604051908101604052809291908181526020018280546114b3906120a5565b80156115005780601f106114d557610100808354040283529160200191611500565b820191906000526020600020905b8154815290600101906020018083116114e357829003601f168201915b5050505050908060040160009054906101000a900460ff16908060050154905086565b606060008054806020026020016040519081016040528092919081815260200182805480156115a757602002820191906000526020600020905b8160009054906101000a900473ffffffffffffffffffffffffffffffffffffffff1673ffffffffffffffffffffffffffffffffffffffff168152602001906001019080831161155d575b5050505050905090565b60035481565b80600260008273ffffffffffffffffffffffffffffffffffffffff1673ffffffffffffffffffffffffffffffffffffffff16815260200190815260200160002060009054906101000a900460ff16611644576040517f08c379a000000000000000000000000000000000000000000000000000000000815260040161163b90611d6c565b60405180910390fd5b6000600260008573ffffffffffffffffffffffffffffffffffffffff1673ffffffffffffffffffffffffffffffffffffffff16815260200190815260200160002060006101000a81548160ff021916908315150217905550600160008154809291906116af9061207b565b91905055508273ffffffffffffffffffffffffffffffffffffffff167fac6e8398676cf37429d530b81144d7079e99f4fe9d28b0d88c4a749ceccbe8cd60405160405180910390a2505050565b828054611708906120a5565b90600052602060002090601f01602090048101928261172a5760008555611771565b82601f1061174357805160ff1916838001178555611771565b82800160010185558215611771579182015b82811115611770578251825591602001919060010190611755565b5b50905061177e9190611782565b5090565b5b8082111561179b576000816000905550600101611783565b5090565b60006117b26117ad84611e25565b611e00565b9050828152602081018484840111156117ca57600080fd5b6117d5848285612039565b509392505050565b6000813590506117ec8161233d565b92915050565b600082601f83011261180357600080fd5b813561181384826020860161179f565b91505092915050565b60008135905061182b81612354565b92915050565b60006020828403121561184357600080fd5b6000611851848285016117dd565b91505092915050565b6000806040838503121561186d57600080fd5b600061187b858286016117dd565b925050602061188c858286016117dd565b9150509250929050565b600080600080608085870312156118ac57600080fd5b60006118ba878288016117dd565b94505060206118cb878288016117dd565b93505060406118dc8782880161181c565b925050606085013567ffffffffffffffff8111156118f957600080fd5b611905878288016117f2565b91505092959194509250565b60006020828403121561192357600080fd5b60006119318482850161181c565b91505092915050565b6000806040838503121561194d57600080fd5b600061195b8582860161181c565b925050602061196c858286016117dd565b9150509250929050565b6000611982838361198e565b60208301905092915050565b61199781611ff1565b82525050565b6119a681611ff1565b82525050565b60006119b782611e7b565b6119c18185611e9e565b93506119cc83611e56565b8060005b838110156119fd5781516119e48882611976565b97506119ef83611e91565b9250506001810190506119d0565b5085935050505092915050565b611a1381612003565b82525050565b6000611a2482611e86565b611a2e8185611eaf565b9350611a3e818560208601612048565b611a478161220d565b840191505092915050565b60008154611a5f816120a5565b611a698186611ec0565b94506001821660008114611a845760018114611a9557611ac8565b60ff19831686528186019350611ac8565b611a9e85611e66565b60005b83811015611ac057815481890152600182019150602081019050611aa1565b838801955050505b50505092915050565b6000611ade600983611ecb565b9150611ae98261221e565b602082019050919050565b6000611b01601183611ecb565b9150611b0c82612247565b602082019050919050565b6000611b24601483611ecb565b9150611b2f82612270565b602082019050919050565b6000611b47601383611ecb565b9150611b5282612299565b602082019050919050565b6000611b6a601083611ecb565b9150611b75826122c2565b602082019050919050565b6000611b8d601183611ecb565b9150611b98826122eb565b602082019050919050565b6000611bb0600983611ecb565b9150611bbb82612314565b602082019050919050565b611bcf8161202f565b82525050565b6000611be18284611a52565b915081905092915050565b6000602082019050611c01600083018461199d565b92915050565b600060c082019050611c1c600083018961199d565b611c29602083018861199d565b611c366040830187611bc6565b8181036060830152611c488186611a19565b9050611c576080830185611a0a565b611c6460a0830184611bc6565b979650505050505050565b60006020820190508181036000830152611c8981846119ac565b905092915050565b6000602082019050611ca66000830184611a0a565b92915050565b60006020820190508181036000830152611cc581611ad1565b9050919050565b60006020820190508181036000830152611ce581611af4565b9050919050565b60006020820190508181036000830152611d0581611b17565b9050919050565b60006020820190508181036000830152611d2581611b3a565b9050919050565b60006020820190508181036000830152611d4581611b5d565b9050919050565b60006020820190508181036000830152611d6581611b80565b9050919050565b60006020820190508181036000830152611d8581611ba3565b9050919050565b6000602082019050611da16000830184611bc6565b92915050565b6000604082019050611dbc6000830185611bc6565b8181036020830152611dce8184611a19565b90509392505050565b6000604082019050611dec6000830185611bc6565b611df96020830184611bc6565b9392505050565b6000611e0a611e1b565b9050611e1682826120d7565b919050565b6000604051905090565b600067ffffffffffffffff821115611e4057611e3f6121de565b5b611e498261220d565b9050602081019050919050565b6000819050602082019050919050565b60008190508160005260206000209050919050565b600081519050919050565b600081519050919050565b6000602082019050919050565b600082825260208201905092915050565b600082825260208201905092915050565b600081905092915050565b600082825260208201905092915050565b6000611ee78261202f565b9150611ef28361202f565b9250827fffffffffffffffffffffffffffffffffffffffffffffffffffffffffffffffff03821115611f2757611f26612151565b5b828201905092915050565b6000611f3d8261202f565b9150611f488361202f565b925082611f5857611f57612180565b5b828204905092915050565b6000611f6e8261202f565b9150611f798361202f565b9250817fffffffffffffffffffffffffffffffffffffffffffffffffffffffffffffffff0483118215151615611fb257611fb1612151565b5b828202905092915050565b6000611fc88261202f565b9150611fd38361202f565b925082821015611fe657611fe5612151565b5b828203905092915050565b6000611ffc8261200f565b9050919050565b60008115159050919050565b600073ffffffffffffffffffffffffffffffffffffffff82169050919050565b6000819050919050565b82818337600083830152505050565b60005b8381101561206657808201518184015260208101905061204b565b83811115612075576000848401525b50505050565b60006120868261202f565b9150600082141561209a57612099612151565b5b600182039050919050565b600060028204905060018216806120bd57607f821691505b602082108114156120d1576120d06121af565b5b50919050565b6120e08261220d565b810181811067ffffffffffffffff821117156120ff576120fe6121de565b5b80604052505050565b60006121138261202f565b91507fffffffffffffffffffffffffffffffffffffffffffffffffffffffffffffffff82141561214657612145612151565b5b600182019050919050565b7f4e487b7100000000000000000000000000000000000000000000000000000000600052601160045260246000fd5b7f4e487b7100000000000000000000000000000000000000000000000000000000600052601260045260246000fd5b7f4e487b7100000000000000000000000000000000000000000000000000000000600052602260045260246000fd5b7f4e487b7100000000000000000000000000000000000000000000000000000000600052604160045260246000fd5b6000601f19601f8301169050919050565b7f7478206661696c65640000000000000000000000000000000000000000000000600082015250565b7f747820646f6573206e6f74206578697374000000000000000000000000000000600082015250565b7f747820616c726561647920636f6e6669726d6564000000000000000000000000600082015250565b7f747820616c726561647920657865637574656400000000000000000000000000600082015250565b7f7478206e6f7420636f6e6669726d656400000000000000000000000000000000600082015250565b7f63616e6e6f742065786563757465207478000000000000000000000000000000600082015250565b7f6e6f74206f776e65720000000000000000000000000000000000000000000000600082015250565b61234681611ff1565b811461235157600080fd5b50565b61235d8161202f565b811461236857600080fd5b5056fea2646970667358221220bffdbdae92b29ed49ea5b3de1f6c548bbc19218cdf9bd8458aab2f019deaa92b64736f6c63430008040033a2646970667358221220a1d1377a5292f79ecd272612fd10d35970bc3759161087a3ca0aa3c92e5a6d8b64736f6c63430008040033",
  "linkReferences": {},
  "deployedLinkReferences": {}
}